{
  "_format": "hh-sol-artifact-1",
  "contractName": "RealBridge",
  "sourceName": "contracts-hardhat/RealBridge.sol",
  "abi": [
    {
      "inputs": [],
      "stateMutability": "nonpayable",
      "type": "constructor"
    },
    {
      "inputs": [
        {
          "internalType": "address",
          "name": "owner",
          "type": "address"
        }
      ],
      "name": "OwnableInvalidOwner",
      "type": "error"
    },
    {
      "inputs": [
        {
          "internalType": "address",
          "name": "account",
          "type": "address"
        }
      ],
      "name": "OwnableUnauthorizedAccount",
      "type": "error"
    },
    {
      "inputs": [],
      "name": "ReentrancyGuardReentrantCall",
      "type": "error"
    },
    {
      "anonymous": false,
      "inputs": [
        {
          "indexed": true,
          "internalType": "bytes32",
          "name": "bridgeId",
          "type": "bytes32"
        },
        {
          "indexed": true,
          "internalType": "address",
          "name": "user",
          "type": "address"
        },
        {
          "indexed": false,
          "internalType": "uint256",
          "name": "amount",
          "type": "uint256"
        }
      ],
      "name": "BridgeClaimed",
      "type": "event"
    },
    {
      "anonymous": false,
      "inputs": [
        {
          "indexed": true,
          "internalType": "bytes32",
          "name": "bridgeId",
          "type": "bytes32"
        },
        {
          "indexed": true,
          "internalType": "address",
          "name": "recipient",
          "type": "address"
        },
        {
          "indexed": false,
          "internalType": "uint256",
          "name": "amount",
          "type": "uint256"
        }
      ],
      "name": "BridgeCompleted",
      "type": "event"
    },
    {
      "anonymous": false,
      "inputs": [
        {
          "indexed": true,
          "internalType": "address",
          "name": "user",
          "type": "address"
        },
        {
          "indexed": true,
          "internalType": "uint256",
          "name": "destChainId",
          "type": "uint256"
        },
        {
          "indexed": false,
          "internalType": "string",
          "name": "destToken",
          "type": "string"
        },
        {
          "indexed": true,
          "internalType": "address",
          "name": "recipient",
          "type": "address"
        },
        {
          "indexed": false,
          "internalType": "uint256",
          "name": "amount",
          "type": "uint256"
        },
        {
          "indexed": false,
          "internalType": "bytes32",
          "name": "bridgeId",
          "type": "bytes32"
        }
      ],
      "name": "BridgeInitiated",
      "type": "event"
    },
    {
      "anonymous": false,
      "inputs": [
        {
          "indexed": true,
          "internalType": "address",
          "name": "previousOwner",
          "type": "address"
        },
        {
          "indexed": true,
          "internalType": "address",
          "name": "newOwner",
          "type": "address"
        }
      ],
      "name": "OwnershipTransferred",
      "type": "event"
    },
    {
      "inputs": [],
      "name": "CHAIN_ID_SEPOLIA",
      "outputs": [
        {
          "internalType": "uint256",
          "name": "",
          "type": "uint256"
        }
      ],
      "stateMutability": "view",
      "type": "function"
    },
    {
      "inputs": [],
      "name": "CHAIN_ID_XLAYER",
      "outputs": [
        {
          "internalType": "uint256",
          "name": "",
          "type": "uint256"
        }
      ],
      "stateMutability": "view",
      "type": "function"
    },
    {
      "inputs": [],
      "name": "addLiquidity",
      "outputs": [],
      "stateMutability": "payable",
      "type": "function"
    },
    {
      "inputs": [
        {
          "internalType": "uint256",
          "name": "",
          "type": "uint256"
        }
      ],
      "name": "bridgeConfigs",
      "outputs": [
        {
          "internalType": "uint256",
          "name": "minAmount",
          "type": "uint256"
        },
        {
          "internalType": "uint256",
          "name": "maxAmount",
          "type": "uint256"
        },
        {
          "internalType": "uint256",
          "name": "feeRate",
          "type": "uint256"
        },
        {
          "internalType": "bool",
          "name": "enabled",
          "type": "bool"
        }
      ],
      "stateMutability": "view",
      "type": "function"
    },
    {
      "inputs": [],
      "name": "bridgeOperator",
      "outputs": [
        {
          "internalType": "address",
          "name": "",
          "type": "address"
        }
      ],
      "stateMutability": "view",
      "type": "function"
    },
    {
      "inputs": [
        {
          "internalType": "bytes32",
          "name": "",
          "type": "bytes32"
        }
      ],
      "name": "bridgeRequests",
      "outputs": [
        {
          "internalType": "address",
          "name": "user",
          "type": "address"
        },
        {
          "internalType": "address",
          "name": "recipient",
          "type": "address"
        },
        {
          "internalType": "uint256",
          "name": "amount",
          "type": "uint256"
        },
        {
          "internalType": "uint256",
          "name": "sourceChainId",
          "type": "uint256"
        },
        {
          "internalType": "uint256",
          "name": "destChainId",
          "type": "uint256"
        },
        {
          "internalType": "string",
          "name": "sourceToken",
          "type": "string"
        },
        {
          "internalType": "string",
          "name": "destToken",
          "type": "string"
        },
        {
          "internalType": "uint256",
          "name": "timestamp",
          "type": "uint256"
        },
        {
          "internalType": "bool",
          "name": "completed",
          "type": "bool"
        },
        {
          "internalType": "bool",
          "name": "claimed",
          "type": "bool"
        }
      ],
      "stateMutability": "view",
      "type": "function"
    },
    {
      "inputs": [
        {
          "internalType": "bytes32",
          "name": "bridgeId",
          "type": "bytes32"
        }
      ],
      "name": "claimBridge",
      "outputs": [],
      "stateMutability": "nonpayable",
      "type": "function"
    },
    {
      "inputs": [],
      "name": "collectedFees",
      "outputs": [
        {
          "internalType": "uint256",
          "name": "",
          "type": "uint256"
        }
      ],
      "stateMutability": "view",
      "type": "function"
    },
    {
      "inputs": [
        {
          "internalType": "bytes32",
          "name": "bridgeId",
          "type": "bytes32"
        },
        {
          "internalType": "address",
          "name": "recipient",
          "type": "address"
        },
        {
          "internalType": "uint256",
          "name": "amount",
          "type": "uint256"
        }
      ],
      "name": "completeBridge",
      "outputs": [],
      "stateMutability": "nonpayable",
      "type": "function"
    },
    {
      "inputs": [],
      "name": "emergencyWithdraw",
      "outputs": [],
      "stateMutability": "nonpayable",
      "type": "function"
    },
    {
      "inputs": [],
      "name": "getBalance",
      "outputs": [
        {
          "internalType": "uint256",
          "name": "",
          "type": "uint256"
        }
      ],
      "stateMutability": "view",
      "type": "function"
    },
    {
      "inputs": [
        {
          "internalType": "bytes32",
          "name": "bridgeId",
          "type": "bytes32"
        }
      ],
      "name": "getBridgeRequest",
      "outputs": [
        {
          "components": [
            {
              "internalType": "address",
              "name": "user",
              "type": "address"
            },
            {
              "internalType": "address",
              "name": "recipient",
              "type": "address"
            },
            {
              "internalType": "uint256",
              "name": "amount",
              "type": "uint256"
            },
            {
              "internalType": "uint256",
              "name": "sourceChainId",
              "type": "uint256"
            },
            {
              "internalType": "uint256",
              "name": "destChainId",
              "type": "uint256"
            },
            {
              "internalType": "string",
              "name": "sourceToken",
              "type": "string"
            },
            {
              "internalType": "string",
              "name": "destToken",
              "type": "string"
            },
            {
              "internalType": "uint256",
              "name": "timestamp",
              "type": "uint256"
            },
            {
              "internalType": "bool",
              "name": "completed",
              "type": "bool"
            },
            {
              "internalType": "bool",
              "name": "claimed",
              "type": "bool"
            }
          ],
          "internalType": "struct RealBridge.BridgeRequest",
          "name": "",
          "type": "tuple"
        }
      ],
      "stateMutability": "view",
      "type": "function"
    },
    {
      "inputs": [
        {
          "internalType": "address",
          "name": "user",
          "type": "address"
        }
      ],
      "name": "getUserBridges",
      "outputs": [
        {
          "internalType": "bytes32[]",
          "name": "",
          "type": "bytes32[]"
        }
      ],
      "stateMutability": "view",
      "type": "function"
    },
    {
      "inputs": [
        {
          "internalType": "uint256",
          "name": "destChainId",
          "type": "uint256"
        },
        {
          "internalType": "string",
          "name": "destToken",
          "type": "string"
        },
        {
          "internalType": "address",
          "name": "recipient",
          "type": "address"
        }
      ],
      "name": "initiateBridge",
      "outputs": [],
      "stateMutability": "payable",
      "type": "function"
    },
    {
      "inputs": [],
      "name": "owner",
      "outputs": [
        {
          "internalType": "address",
          "name": "",
          "type": "address"
        }
      ],
      "stateMutability": "view",
      "type": "function"
    },
    {
      "inputs": [],
      "name": "renounceOwnership",
      "outputs": [],
      "stateMutability": "nonpayable",
      "type": "function"
    },
    {
      "inputs": [
        {
          "internalType": "address",
          "name": "newOperator",
          "type": "address"
        }
      ],
      "name": "setBridgeOperator",
      "outputs": [],
      "stateMutability": "nonpayable",
      "type": "function"
    },
    {
      "inputs": [],
      "name": "totalBridged",
      "outputs": [
        {
          "internalType": "uint256",
          "name": "",
          "type": "uint256"
        }
      ],
      "stateMutability": "view",
      "type": "function"
    },
    {
      "inputs": [
        {
          "internalType": "address",
          "name": "newOwner",
          "type": "address"
        }
      ],
      "name": "transferOwnership",
      "outputs": [],
      "stateMutability": "nonpayable",
      "type": "function"
    },
    {
      "inputs": [
        {
          "internalType": "uint256",
          "name": "destChainId",
          "type": "uint256"
        },
        {
          "internalType": "uint256",
          "name": "minAmount",
          "type": "uint256"
        },
        {
          "internalType": "uint256",
          "name": "maxAmount",
          "type": "uint256"
        },
        {
          "internalType": "uint256",
          "name": "feeRate",
          "type": "uint256"
        },
        {
          "internalType": "bool",
          "name": "enabled",
          "type": "bool"
        }
      ],
      "name": "updateBridgeConfig",
      "outputs": [],
      "stateMutability": "nonpayable",
      "type": "function"
    },
    {
      "inputs": [
        {
          "internalType": "address",
          "name": "",
          "type": "address"
        },
        {
          "internalType": "uint256",
          "name": "",
          "type": "uint256"
        }
      ],
      "name": "userBridges",
      "outputs": [
        {
          "internalType": "bytes32",
          "name": "",
          "type": "bytes32"
        }
      ],
      "stateMutability": "view",
      "type": "function"
    },
    {
      "inputs": [],
      "name": "withdrawFees",
      "outputs": [],
      "stateMutability": "nonpayable",
      "type": "function"
    }
  ],
  "bytecode": "0x60806040523480156200001157600080fd5b50336001600081905550600073ffffffffffffffffffffffffffffffffffffffff168173ffffffffffffffffffffffffffffffffffffffff1603620000905760006040517f1e4fbdf70000000000000000000000000000000000000000000000000000000081526004016200008791906200027d565b60405180910390fd5b620000a1816200017260201b60201c565b50604051806080016040528066038d7ea4c680008152602001678ac7230489e80000815260200160328152602001600115158152506002600060c3815260200190815260200160002060008201518160000155602082015181600101556040820151816002015560608201518160030160006101000a81548160ff02191690831515021790555090505033600560006101000a81548173ffffffffffffffffffffffffffffffffffffffff021916908373ffffffffffffffffffffffffffffffffffffffff1602179055506200029a565b6000600160009054906101000a900473ffffffffffffffffffffffffffffffffffffffff16905081600160006101000a81548173ffffffffffffffffffffffffffffffffffffffff021916908373ffffffffffffffffffffffffffffffffffffffff1602179055508173ffffffffffffffffffffffffffffffffffffffff168173ffffffffffffffffffffffffffffffffffffffff167f8be0079c531659141344cd1fd0a4f28419497f9722a3daafe3b4186f6b6457e060405160405180910390a35050565b600073ffffffffffffffffffffffffffffffffffffffff82169050919050565b6000620002658262000238565b9050919050565b620002778162000258565b82525050565b60006020820190506200029460008301846200026c565b92915050565b612edb80620002aa6000396000f3fe6080604052600436106101355760003560e01c80638381a613116100ab578063cacd8bf21161006f578063cacd8bf2146103ec578063d172f2f014610415578063d4b5bbc814610455578063db2e21bc14610492578063e8078d94146104a9578063f2fde38b146104b357610135565b80638381a613146102f15780638da5cb5b1461031c5780639003adfe14610347578063a0c7968214610372578063c92034b5146103af57610135565b806360b41411116100fd57806360b41411146101fb57806367a1791a1461024157806367d369301461026c5780636e45b2c21461029557806370d6f9ca146102b1578063715018a6146102da57610135565b80630cde821c1461013a57806312065fe014610163578063476343ee1461018e57806354ae258f146101a5578063590665c2146101d0575b600080fd5b34801561014657600080fd5b50610161600480360381019061015c9190611ae3565b6104dc565b005b34801561016f57600080fd5b50610178610528565b6040516101859190611b29565b60405180910390f35b34801561019a57600080fd5b506101a3610530565b005b3480156101b157600080fd5b506101ba6105fe565b6040516101c79190611b29565b60405180910390f35b3480156101dc57600080fd5b506101e5610605565b6040516101f29190611b53565b60405180910390f35b34801561020757600080fd5b50610222600480360381019061021d9190611ba4565b61062b565b6040516102389a99989796959493929190611c7c565b60405180910390f35b34801561024d57600080fd5b506102566107e9565b6040516102639190611b29565b60405180910390f35b34801561027857600080fd5b50610293600480360381019061028e9190611d52565b6107ef565b005b6102af60048036038101906102aa9190611e0a565b610a85565b005b3480156102bd57600080fd5b506102d860048036038101906102d39190611ba4565b611011565b005b3480156102e657600080fd5b506102ef611292565b005b3480156102fd57600080fd5b506103066112a6565b6040516103139190611b29565b60405180910390f35b34801561032857600080fd5b506103316112ab565b60405161033e9190611b53565b60405180910390f35b34801561035357600080fd5b5061035c6112d5565b6040516103699190611b29565b60405180910390f35b34801561037e57600080fd5b5061039960048036038101906103949190611ae3565b6112db565b6040516103a69190611f3c565b60405180910390f35b3480156103bb57600080fd5b506103d660048036038101906103d19190611f5e565b611372565b6040516103e39190611fad565b60405180910390f35b3480156103f857600080fd5b50610413600480360381019061040e9190611ff4565b6113a3565b005b34801561042157600080fd5b5061043c6004803603810190610437919061206f565b611429565b60405161044c949392919061209c565b60405180910390f35b34801561046157600080fd5b5061047c60048036038101906104779190611ba4565b611466565b6040516104899190612239565b60405180910390f35b34801561049e57600080fd5b506104a76116c2565b005b6104b1611780565b005b3480156104bf57600080fd5b506104da60048036038101906104d59190611ae3565b6117cd565b005b6104e4611853565b80600560006101000a81548173ffffffffffffffffffffffffffffffffffffffff021916908373ffffffffffffffffffffffffffffffffffffffff16021790555050565b600047905090565b610538611853565b60006007549050600060078190555060006105516112ab565b73ffffffffffffffffffffffffffffffffffffffff16826040516105749061228c565b60006040518083038185875af1925050503d80600081146105b1576040519150601f19603f3d011682016040523d82523d6000602084013e6105b6565b606091505b50509050806105fa576040517f08c379a00000000000000000000000000000000000000000000000000000000081526004016105f1906122ed565b60405180910390fd5b5050565b62aa36a781565b600560009054906101000a900473ffffffffffffffffffffffffffffffffffffffff1681565b60036020528060005260406000206000915090508060000160009054906101000a900473ffffffffffffffffffffffffffffffffffffffff16908060010160009054906101000a900473ffffffffffffffffffffffffffffffffffffffff16908060020154908060030154908060040154908060050180546106ac9061233c565b80601f01602080910402602001604051908101604052809291908181526020018280546106d89061233c565b80156107255780601f106106fa57610100808354040283529160200191610725565b820191906000526020600020905b81548152906001019060200180831161070857829003601f168201915b50505050509080600601805461073a9061233c565b80601f01602080910402602001604051908101604052809291908181526020018280546107669061233c565b80156107b35780601f10610788576101008083540402835291602001916107b3565b820191906000526020600020905b81548152906001019060200180831161079657829003601f168201915b5050505050908060070154908060080160009054906101000a900460ff16908060080160019054906101000a900460ff1690508a565b60065481565b600560009054906101000a900473ffffffffffffffffffffffffffffffffffffffff1673ffffffffffffffffffffffffffffffffffffffff163373ffffffffffffffffffffffffffffffffffffffff161461087f576040517f08c379a0000000000000000000000000000000000000000000000000000000008152600401610876906123b9565b60405180910390fd5b6108876118da565b600073ffffffffffffffffffffffffffffffffffffffff168273ffffffffffffffffffffffffffffffffffffffff16036108f6576040517f08c379a00000000000000000000000000000000000000000000000000000000081526004016108ed90612425565b60405180910390fd5b60008111610939576040517f08c379a000000000000000000000000000000000000000000000000000000000815260040161093090612491565b60405180910390fd5b8047101561097c576040517f08c379a0000000000000000000000000000000000000000000000000000000008152600401610973906124fd565b60405180910390fd5b60008273ffffffffffffffffffffffffffffffffffffffff16826040516109a29061228c565b60006040518083038185875af1925050503d80600081146109df576040519150601f19603f3d011682016040523d82523d6000602084013e6109e4565b606091505b5050905080610a28576040517f08c379a0000000000000000000000000000000000000000000000000000000008152600401610a1f90612569565b60405180910390fd5b8273ffffffffffffffffffffffffffffffffffffffff16847f3a5e0271cd79026f0993aa13e6dd17d1f34284aa2340c1d2c33653b9a4433ee984604051610a6f9190611b29565b60405180910390a350610a80611920565b505050565b610a8d6118da565b60003411610ad0576040517f08c379a0000000000000000000000000000000000000000000000000000000008152600401610ac7906125d5565b60405180910390fd5b600073ffffffffffffffffffffffffffffffffffffffff168173ffffffffffffffffffffffffffffffffffffffff1603610b3f576040517f08c379a0000000000000000000000000000000000000000000000000000000008152600401610b3690612425565b60405180910390fd5b6000600260008681526020019081526020016000206040518060800160405290816000820154815260200160018201548152602001600282015481526020016003820160009054906101000a900460ff16151515158152505090508060600151610bde576040517f08c379a0000000000000000000000000000000000000000000000000000000008152600401610bd590612667565b60405180910390fd5b8060000151341015610c25576040517f08c379a0000000000000000000000000000000000000000000000000000000008152600401610c1c906126d3565b60405180910390fd5b8060200151341115610c6c576040517f08c379a0000000000000000000000000000000000000000000000000000000008152600401610c639061273f565b60405180910390fd5b6000612710826040015134610c81919061278e565b610c8b91906127ff565b905060008134610c9b9190612830565b905060003385434234604051602001610cb89594939291906128cd565b6040516020818303038152906040528051906020012090506040518061014001604052803373ffffffffffffffffffffffffffffffffffffffff1681526020018673ffffffffffffffffffffffffffffffffffffffff1681526020018381526020014681526020018981526020016040518060400160405280600381526020017f4554480000000000000000000000000000000000000000000000000000000000815250815260200188888080601f016020809104026020016040519081016040528093929190818152602001838380828437600081840152601f19601f820116905080830192505050505050508152602001428152602001600015158152602001600015158152506003600083815260200190815260200160002060008201518160000160006101000a81548173ffffffffffffffffffffffffffffffffffffffff021916908373ffffffffffffffffffffffffffffffffffffffff16021790555060208201518160010160006101000a81548173ffffffffffffffffffffffffffffffffffffffff021916908373ffffffffffffffffffffffffffffffffffffffff16021790555060408201518160020155606082015181600301556080820151816004015560a0820151816005019081610e959190612b07565b5060c0820151816006019081610eab9190612b07565b5060e082015181600701556101008201518160080160006101000a81548160ff0219169083151502179055506101208201518160080160016101000a81548160ff021916908315150217905550905050600460003373ffffffffffffffffffffffffffffffffffffffff1673ffffffffffffffffffffffffffffffffffffffff1681526020019081526020016000208190806001815401808255809150506001900390600052602060002001600090919091909150558260076000828254610f739190612bd9565b925050819055508160066000828254610f8c9190612bd9565b925050819055508473ffffffffffffffffffffffffffffffffffffffff16883373ffffffffffffffffffffffffffffffffffffffff167f6641ee9c8198481300745e2623b502b983179e930e8b0222ba20ef8457c7773a8a8a8787604051610ff79493929190612c49565b60405180910390a45050505061100b611920565b50505050565b6110196118da565b60006003600083815260200190815260200160002090503373ffffffffffffffffffffffffffffffffffffffff168160010160009054906101000a900473ffffffffffffffffffffffffffffffffffffffff1673ffffffffffffffffffffffffffffffffffffffff16146110c2576040517f08c379a00000000000000000000000000000000000000000000000000000000081526004016110b990612cd5565b60405180910390fd5b8060080160009054906101000a900460ff16611113576040517f08c379a000000000000000000000000000000000000000000000000000000000815260040161110a90612d41565b60405180910390fd5b8060080160019054906101000a900460ff1615611165576040517f08c379a000000000000000000000000000000000000000000000000000000000815260040161115c90612dad565b60405180910390fd5b60018160080160016101000a81548160ff02191690831515021790555060003373ffffffffffffffffffffffffffffffffffffffff1682600201546040516111ac9061228c565b60006040518083038185875af1925050503d80600081146111e9576040519150601f19603f3d011682016040523d82523d6000602084013e6111ee565b606091505b5050905080611232576040517f08c379a000000000000000000000000000000000000000000000000000000000815260040161122990612569565b60405180910390fd5b3373ffffffffffffffffffffffffffffffffffffffff16837f3273bc4d372fbccba5ca74dcfeb5bde8afca26b594c96bc7144f14c4d5dd2d21846002015460405161127d9190611b29565b60405180910390a3505061128f611920565b50565b61129a611853565b6112a4600061192a565b565b60c381565b6000600160009054906101000a900473ffffffffffffffffffffffffffffffffffffffff16905090565b60075481565b6060600460008373ffffffffffffffffffffffffffffffffffffffff1673ffffffffffffffffffffffffffffffffffffffff16815260200190815260200160002080548060200260200160405190810160405280929190818152602001828054801561136657602002820191906000526020600020905b815481526020019060010190808311611352575b50505050509050919050565b6004602052816000526040600020818154811061138e57600080fd5b90600052602060002001600091509150505481565b6113ab611853565b60405180608001604052808581526020018481526020018381526020018215158152506002600087815260200190815260200160002060008201518160000155602082015181600101556040820151816002015560608201518160030160006101000a81548160ff0219169083151502179055509050505050505050565b60026020528060005260406000206000915090508060000154908060010154908060020154908060030160009054906101000a900460ff16905084565b61146e6119f8565b60036000838152602001908152602001600020604051806101400160405290816000820160009054906101000a900473ffffffffffffffffffffffffffffffffffffffff1673ffffffffffffffffffffffffffffffffffffffff1673ffffffffffffffffffffffffffffffffffffffff1681526020016001820160009054906101000a900473ffffffffffffffffffffffffffffffffffffffff1673ffffffffffffffffffffffffffffffffffffffff1673ffffffffffffffffffffffffffffffffffffffff1681526020016002820154815260200160038201548152602001600482015481526020016005820180546115679061233c565b80601f01602080910402602001604051908101604052809291908181526020018280546115939061233c565b80156115e05780601f106115b5576101008083540402835291602001916115e0565b820191906000526020600020905b8154815290600101906020018083116115c357829003601f168201915b505050505081526020016006820180546115f99061233c565b80601f01602080910402602001604051908101604052809291908181526020018280546116259061233c565b80156116725780601f1061164757610100808354040283529160200191611672565b820191906000526020600020905b81548152906001019060200180831161165557829003601f168201915b50505050508152602001600782015481526020016008820160009054906101000a900460ff161515151581526020016008820160019054906101000a900460ff1615151515815250509050919050565b6116ca611853565b60006116d46112ab565b73ffffffffffffffffffffffffffffffffffffffff16476040516116f79061228c565b60006040518083038185875af1925050503d8060008114611734576040519150601f19603f3d011682016040523d82523d6000602084013e611739565b606091505b505090508061177d576040517f08c379a000000000000000000000000000000000000000000000000000000000815260040161177490612e19565b60405180910390fd5b50565b611788611853565b600034116117cb576040517f08c379a00000000000000000000000000000000000000000000000000000000081526004016117c290612e85565b60405180910390fd5b565b6117d5611853565b600073ffffffffffffffffffffffffffffffffffffffff168173ffffffffffffffffffffffffffffffffffffffff16036118475760006040517f1e4fbdf700000000000000000000000000000000000000000000000000000000815260040161183e9190611b53565b60405180910390fd5b6118508161192a565b50565b61185b6119f0565b73ffffffffffffffffffffffffffffffffffffffff166118796112ab565b73ffffffffffffffffffffffffffffffffffffffff16146118d85761189c6119f0565b6040517f118cdaa70000000000000000000000000000000000000000000000000000000081526004016118cf9190611b53565b60405180910390fd5b565b600260005403611916576040517f3ee5aeb500000000000000000000000000000000000000000000000000000000815260040160405180910390fd5b6002600081905550565b6001600081905550565b6000600160009054906101000a900473ffffffffffffffffffffffffffffffffffffffff16905081600160006101000a81548173ffffffffffffffffffffffffffffffffffffffff021916908373ffffffffffffffffffffffffffffffffffffffff1602179055508173ffffffffffffffffffffffffffffffffffffffff168173ffffffffffffffffffffffffffffffffffffffff167f8be0079c531659141344cd1fd0a4f28419497f9722a3daafe3b4186f6b6457e060405160405180910390a35050565b600033905090565b604051806101400160405280600073ffffffffffffffffffffffffffffffffffffffff168152602001600073ffffffffffffffffffffffffffffffffffffffff1681526020016000815260200160008152602001600081526020016060815260200160608152602001600081526020016000151581526020016000151581525090565b600080fd5b600080fd5b600073ffffffffffffffffffffffffffffffffffffffff82169050919050565b6000611ab082611a85565b9050919050565b611ac081611aa5565b8114611acb57600080fd5b50565b600081359050611add81611ab7565b92915050565b600060208284031215611af957611af8611a7b565b5b6000611b0784828501611ace565b91505092915050565b6000819050919050565b611b2381611b10565b82525050565b6000602082019050611b3e6000830184611b1a565b92915050565b611b4d81611aa5565b82525050565b6000602082019050611b686000830184611b44565b92915050565b6000819050919050565b611b8181611b6e565b8114611b8c57600080fd5b50565b600081359050611b9e81611b78565b92915050565b600060208284031215611bba57611bb9611a7b565b5b6000611bc884828501611b8f565b91505092915050565b600081519050919050565b600082825260208201905092915050565b60005b83811015611c0b578082015181840152602081019050611bf0565b60008484015250505050565b6000601f19601f8301169050919050565b6000611c3382611bd1565b611c3d8185611bdc565b9350611c4d818560208601611bed565b611c5681611c17565b840191505092915050565b60008115159050919050565b611c7681611c61565b82525050565b600061014082019050611c92600083018d611b44565b611c9f602083018c611b44565b611cac604083018b611b1a565b611cb9606083018a611b1a565b611cc66080830189611b1a565b81810360a0830152611cd88188611c28565b905081810360c0830152611cec8187611c28565b9050611cfb60e0830186611b1a565b611d09610100830185611c6d565b611d17610120830184611c6d565b9b9a5050505050505050505050565b611d2f81611b10565b8114611d3a57600080fd5b50565b600081359050611d4c81611d26565b92915050565b600080600060608486031215611d6b57611d6a611a7b565b5b6000611d7986828701611b8f565b9350506020611d8a86828701611ace565b9250506040611d9b86828701611d3d565b9150509250925092565b600080fd5b600080fd5b600080fd5b60008083601f840112611dca57611dc9611da5565b5b8235905067ffffffffffffffff811115611de757611de6611daa565b5b602083019150836001820283011115611e0357611e02611daf565b5b9250929050565b60008060008060608587031215611e2457611e23611a7b565b5b6000611e3287828801611d3d565b945050602085013567ffffffffffffffff811115611e5357611e52611a80565b5b611e5f87828801611db4565b93509350506040611e7287828801611ace565b91505092959194509250565b600081519050919050565b600082825260208201905092915050565b6000819050602082019050919050565b611eb381611b6e565b82525050565b6000611ec58383611eaa565b60208301905092915050565b6000602082019050919050565b6000611ee982611e7e565b611ef38185611e89565b9350611efe83611e9a565b8060005b83811015611f2f578151611f168882611eb9565b9750611f2183611ed1565b925050600181019050611f02565b5085935050505092915050565b60006020820190508181036000830152611f568184611ede565b905092915050565b60008060408385031215611f7557611f74611a7b565b5b6000611f8385828601611ace565b9250506020611f9485828601611d3d565b9150509250929050565b611fa781611b6e565b82525050565b6000602082019050611fc26000830184611f9e565b92915050565b611fd181611c61565b8114611fdc57600080fd5b50565b600081359050611fee81611fc8565b92915050565b600080600080600060a086880312156120105761200f611a7b565b5b600061201e88828901611d3d565b955050602061202f88828901611d3d565b945050604061204088828901611d3d565b935050606061205188828901611d3d565b925050608061206288828901611fdf565b9150509295509295909350565b60006020828403121561208557612084611a7b565b5b600061209384828501611d3d565b91505092915050565b60006080820190506120b16000830187611b1a565b6120be6020830186611b1a565b6120cb6040830185611b1a565b6120d86060830184611c6d565b95945050505050565b6120ea81611aa5565b82525050565b6120f981611b10565b82525050565b600082825260208201905092915050565b600061211b82611bd1565b61212581856120ff565b9350612135818560208601611bed565b61213e81611c17565b840191505092915050565b61215281611c61565b82525050565b60006101408301600083015161217160008601826120e1565b50602083015161218460208601826120e1565b50604083015161219760408601826120f0565b5060608301516121aa60608601826120f0565b5060808301516121bd60808601826120f0565b5060a083015184820360a08601526121d58282612110565b91505060c083015184820360c08601526121ef8282612110565b91505060e083015161220460e08601826120f0565b50610100830151612219610100860182612149565b5061012083015161222e610120860182612149565b508091505092915050565b600060208201905081810360008301526122538184612158565b905092915050565b600081905092915050565b50565b600061227660008361225b565b915061228182612266565b600082019050919050565b600061229782612269565b9150819050919050565b7f5769746864726177616c206661696c6564000000000000000000000000000000600082015250565b60006122d7601183611bdc565b91506122e2826122a1565b602082019050919050565b60006020820190508181036000830152612306816122ca565b9050919050565b7f4e487b7100000000000000000000000000000000000000000000000000000000600052602260045260246000fd5b6000600282049050600182168061235457607f821691505b6020821081036123675761236661230d565b5b50919050565b7f4e6f7420627269646765206f70657261746f7200000000000000000000000000600082015250565b60006123a3601383611bdc565b91506123ae8261236d565b602082019050919050565b600060208201905081810360008301526123d281612396565b9050919050565b7f496e76616c696420726563697069656e74000000000000000000000000000000600082015250565b600061240f601183611bdc565b915061241a826123d9565b602082019050919050565b6000602082019050818103600083015261243e81612402565b9050919050565b7f496e76616c696420616d6f756e74000000000000000000000000000000000000600082015250565b600061247b600e83611bdc565b915061248682612445565b602082019050919050565b600060208201905081810360008301526124aa8161246e565b9050919050565b7f496e73756666696369656e7420627269646765206c6971756964697479000000600082015250565b60006124e7601d83611bdc565b91506124f2826124b1565b602082019050919050565b60006020820190508181036000830152612516816124da565b9050919050565b7f5472616e73666572206661696c65640000000000000000000000000000000000600082015250565b6000612553600f83611bdc565b915061255e8261251d565b602082019050919050565b6000602082019050818103600083015261258281612546565b9050919050565b7f416d6f756e74206d7573742062652067726561746572207468616e2030000000600082015250565b60006125bf601d83611bdc565b91506125ca82612589565b602082019050919050565b600060208201905081810360008301526125ee816125b2565b9050919050565b7f427269646765206e6f7420656e61626c656420666f722064657374696e61746960008201527f6f6e20636861696e000000000000000000000000000000000000000000000000602082015250565b6000612651602883611bdc565b915061265c826125f5565b604082019050919050565b6000602082019050818103600083015261268081612644565b9050919050565b7f416d6f756e742062656c6f77206d696e696d756d000000000000000000000000600082015250565b60006126bd601483611bdc565b91506126c882612687565b602082019050919050565b600060208201905081810360008301526126ec816126b0565b9050919050565b7f416d6f756e742061626f7665206d6178696d756d000000000000000000000000600082015250565b6000612729601483611bdc565b9150612734826126f3565b602082019050919050565b600060208201905081810360008301526127588161271c565b9050919050565b7f4e487b7100000000000000000000000000000000000000000000000000000000600052601160045260246000fd5b600061279982611b10565b91506127a483611b10565b92508282026127b281611b10565b915082820484148315176127c9576127c861275f565b5b5092915050565b7f4e487b7100000000000000000000000000000000000000000000000000000000600052601260045260246000fd5b600061280a82611b10565b915061281583611b10565b925082612825576128246127d0565b5b828204905092915050565b600061283b82611b10565b915061284683611b10565b925082820390508181111561285e5761285d61275f565b5b92915050565b60008160601b9050919050565b600061287c82612864565b9050919050565b600061288e82612871565b9050919050565b6128a66128a182611aa5565b612883565b82525050565b6000819050919050565b6128c76128c282611b10565b6128ac565b82525050565b60006128d98288612895565b6014820191506128e98287612895565b6014820191506128f982866128b6565b60208201915061290982856128b6565b60208201915061291982846128b6565b6020820191508190509695505050505050565b7f4e487b7100000000000000000000000000000000000000000000000000000000600052604160045260246000fd5b60008190508160005260206000209050919050565b60006020601f8301049050919050565b600082821b905092915050565b6000600883026129bd7fffffffffffffffffffffffffffffffffffffffffffffffffffffffffffffffff82612980565b6129c78683612980565b95508019841693508086168417925050509392505050565b6000819050919050565b6000612a046129ff6129fa84611b10565b6129df565b611b10565b9050919050565b6000819050919050565b612a1e836129e9565b612a32612a2a82612a0b565b84845461298d565b825550505050565b600090565b612a47612a3a565b612a52818484612a15565b505050565b5b81811015612a7657612a6b600082612a3f565b600181019050612a58565b5050565b601f821115612abb57612a8c8161295b565b612a9584612970565b81016020851015612aa4578190505b612ab8612ab085612970565b830182612a57565b50505b505050565b600082821c905092915050565b6000612ade60001984600802612ac0565b1980831691505092915050565b6000612af78383612acd565b9150826002028217905092915050565b612b1082611bd1565b67ffffffffffffffff811115612b2957612b2861292c565b5b612b33825461233c565b612b3e828285612a7a565b600060209050601f831160018114612b715760008415612b5f578287015190505b612b698582612aeb565b865550612bd1565b601f198416612b7f8661295b565b60005b82811015612ba757848901518255600182019150602085019450602081019050612b82565b86831015612bc45784890151612bc0601f891682612acd565b8355505b6001600288020188555050505b505050505050565b6000612be482611b10565b9150612bef83611b10565b9250828201905080821115612c0757612c0661275f565b5b92915050565b82818337600083830152505050565b6000612c288385611bdc565b9350612c35838584612c0d565b612c3e83611c17565b840190509392505050565b60006060820190508181036000830152612c64818688612c1c565b9050612c736020830185611b1a565b612c806040830184611f9e565b95945050505050565b7f4e6f7420796f7572206272696467650000000000000000000000000000000000600082015250565b6000612cbf600f83611bdc565b9150612cca82612c89565b602082019050919050565b60006020820190508181036000830152612cee81612cb2565b9050919050565b7f427269646765206e6f7420636f6d706c65746564000000000000000000000000600082015250565b6000612d2b601483611bdc565b9150612d3682612cf5565b602082019050919050565b60006020820190508181036000830152612d5a81612d1e565b9050919050565b7f416c726561647920636c61696d65640000000000000000000000000000000000600082015250565b6000612d97600f83611bdc565b9150612da282612d61565b602082019050919050565b60006020820190508181036000830152612dc681612d8a565b9050919050565b7f456d657267656e6379207769746864726177616c206661696c65640000000000600082015250565b6000612e03601b83611bdc565b9150612e0e82612dcd565b602082019050919050565b60006020820190508181036000830152612e3281612df6565b9050919050565b7f4d7573742073656e642076616c75650000000000000000000000000000000000600082015250565b6000612e6f600f83611bdc565b9150612e7a82612e39565b602082019050919050565b60006020820190508181036000830152612e9e81612e62565b905091905056fea2646970667358221220eec19a15d8444b9fda04fe217c424c574ff9337ae1c2c91ac8eeff4f6dcf3f9964736f6c63430008140033",
  "linkReferences": {},
  "deployedLinkReferences": {}
}