{
  "_format": "hh-sol-artifact-1",
  "contractName": "SimpleBridge",
  "sourceName": "contracts-hardhat/SimpleBridge.sol",
  "abi": [
    {
      "inputs": [],
      "stateMutability": "nonpayable",
      "type": "constructor"
    },
    {
      "anonymous": false,
      "inputs": [
        {
          "indexed": true,
          "internalType": "address",
          "name": "recipient",
          "type": "address"
        },
        {
          "indexed": false,
          "internalType": "uint256",
          "name": "amount",
          "type": "uint256"
        },
        {
          "indexed": false,
          "internalType": "string",
          "name": "sourceToken",
          "type": "string"
        },
        {
          "indexed": false,
          "internalType": "uint256",
          "name": "sourceChainId",
          "type": "uint256"
        }
      ],
      "name": "BridgeCompleted",
      "type": "event"
    },
    {
      "anonymous": false,
      "inputs": [
        {
          "indexed": true,
          "internalType": "address",
          "name": "sender",
          "type": "address"
        },
        {
          "indexed": false,
          "internalType": "uint256",
          "name": "amount",
          "type": "uint256"
        },
        {
          "indexed": false,
          "internalType": "uint256",
          "name": "destinationChainId",
          "type": "uint256"
        },
        {
          "indexed": false,
          "internalType": "string",
          "name": "destinationToken",
          "type": "string"
        },
        {
          "indexed": true,
          "internalType": "address",
          "name": "recipient",
          "type": "address"
        }
      ],
      "name": "BridgeInitiated",
      "type": "event"
    },
    {
      "inputs": [
        {
          "internalType": "address",
          "name": "recipient",
          "type": "address"
        },
        {
          "internalType": "uint256",
          "name": "amount",
          "type": "uint256"
        },
        {
          "internalType": "string",
          "name": "sourceToken",
          "type": "string"
        },
        {
          "internalType": "uint256",
          "name": "sourceChainId",
          "type": "uint256"
        },
        {
          "internalType": "bytes32",
          "name": "bridgeId",
          "type": "bytes32"
        }
      ],
      "name": "completeBridge",
      "outputs": [],
      "stateMutability": "nonpayable",
      "type": "function"
    },
    {
      "inputs": [],
      "name": "getBalance",
      "outputs": [
        {
          "internalType": "uint256",
          "name": "",
          "type": "uint256"
        }
      ],
      "stateMutability": "view",
      "type": "function"
    },
    {
      "inputs": [
        {
          "internalType": "uint256",
          "name": "destinationChainId",
          "type": "uint256"
        },
        {
          "internalType": "string",
          "name": "destinationToken",
          "type": "string"
        },
        {
          "internalType": "address",
          "name": "recipient",
          "type": "address"
        }
      ],
      "name": "initiateBridge",
      "outputs": [],
      "stateMutability": "payable",
      "type": "function"
    },
    {
      "inputs": [],
      "name": "owner",
      "outputs": [
        {
          "internalType": "address",
          "name": "",
          "type": "address"
        }
      ],
      "stateMutability": "view",
      "type": "function"
    },
    {
      "inputs": [
        {
          "internalType": "bytes32",
          "name": "",
          "type": "bytes32"
        }
      ],
      "name": "processedBridges",
      "outputs": [
        {
          "internalType": "bool",
          "name": "",
          "type": "bool"
        }
      ],
      "stateMutability": "view",
      "type": "function"
    },
    {
      "inputs": [
        {
          "internalType": "uint256",
          "name": "amount",
          "type": "uint256"
        }
      ],
      "name": "withdraw",
      "outputs": [],
      "stateMutability": "nonpayable",
      "type": "function"
    },
    {
      "stateMutability": "payable",
      "type": "receive"
    }
  ],
  "bytecode": "0x608060405234801561001057600080fd5b5033600160006101000a81548173ffffffffffffffffffffffffffffffffffffffff021916908373ffffffffffffffffffffffffffffffffffffffff160217905550610e2f806100616000396000f3fe6080604052600436106100595760003560e01c806312065fe0146100655780632e1a7d4d146100905780636e45b2c2146100b95780638cd40bb3146100d55780638da5cb5b146100fe578063c582323b1461012957610060565b3661006057005b600080fd5b34801561007157600080fd5b5061007a610166565b60405161008791906106cf565b60405180910390f35b34801561009c57600080fd5b506100b760048036038101906100b29190610720565b61016e565b005b6100d360048036038101906100ce9190610810565b610313565b005b3480156100e157600080fd5b506100fc60048036038101906100f791906108ba565b610409565b005b34801561010a57600080fd5b50610113610670565b6040516101209190610963565b60405180910390f35b34801561013557600080fd5b50610150600480360381019061014b919061097e565b610696565b60405161015d91906109c6565b60405180910390f35b600047905090565b600160009054906101000a900473ffffffffffffffffffffffffffffffffffffffff1673ffffffffffffffffffffffffffffffffffffffff163373ffffffffffffffffffffffffffffffffffffffff16146101fe576040517f08c379a00000000000000000000000000000000000000000000000000000000081526004016101f590610a3e565b60405180910390fd5b47811115610241576040517f08c379a000000000000000000000000000000000000000000000000000000000815260040161023890610aaa565b60405180910390fd5b6000600160009054906101000a900473ffffffffffffffffffffffffffffffffffffffff1673ffffffffffffffffffffffffffffffffffffffff168260405161028990610afb565b60006040518083038185875af1925050503d80600081146102c6576040519150601f19603f3d011682016040523d82523d6000602084013e6102cb565b606091505b505090508061030f576040517f08c379a000000000000000000000000000000000000000000000000000000000815260040161030690610b5c565b60405180910390fd5b5050565b60003411610356576040517f08c379a000000000000000000000000000000000000000000000000000000000815260040161034d90610bc8565b60405180910390fd5b468403610398576040517f08c379a000000000000000000000000000000000000000000000000000000000815260040161038f90610c34565b60405180910390fd5b8073ffffffffffffffffffffffffffffffffffffffff163373ffffffffffffffffffffffffffffffffffffffff167fbe34e359c53169b70ec0bbeba7520db69923e8d3383a434639ab446f36a69105348787876040516103fb9493929190610ca1565b60405180910390a350505050565b600160009054906101000a900473ffffffffffffffffffffffffffffffffffffffff1673ffffffffffffffffffffffffffffffffffffffff163373ffffffffffffffffffffffffffffffffffffffff1614610499576040517f08c379a000000000000000000000000000000000000000000000000000000000815260040161049090610a3e565b60405180910390fd5b60008082815260200190815260200160002060009054906101000a900460ff16156104f9576040517f08c379a00000000000000000000000000000000000000000000000000000000081526004016104f090610d2d565b60405180910390fd5b6000851161053c576040517f08c379a000000000000000000000000000000000000000000000000000000000815260040161053390610bc8565b60405180910390fd5b600160008083815260200190815260200160002060006101000a81548160ff02191690831515021790555060008673ffffffffffffffffffffffffffffffffffffffff168660405161058d90610afb565b60006040518083038185875af1925050503d80600081146105ca576040519150601f19603f3d011682016040523d82523d6000602084013e6105cf565b606091505b5050905080610613576040517f08c379a000000000000000000000000000000000000000000000000000000000815260040161060a90610d99565b60405180910390fd5b8673ffffffffffffffffffffffffffffffffffffffff167f2372a07bed5da3cce8ef158bf597557102b68e2833125bd267c68b45beeb93688787878760405161065f9493929190610db9565b60405180910390a250505050505050565b600160009054906101000a900473ffffffffffffffffffffffffffffffffffffffff1681565b60006020528060005260406000206000915054906101000a900460ff1681565b6000819050919050565b6106c9816106b6565b82525050565b60006020820190506106e460008301846106c0565b92915050565b600080fd5b600080fd5b6106fd816106b6565b811461070857600080fd5b50565b60008135905061071a816106f4565b92915050565b600060208284031215610736576107356106ea565b5b60006107448482850161070b565b91505092915050565b600080fd5b600080fd5b600080fd5b60008083601f8401126107725761077161074d565b5b8235905067ffffffffffffffff81111561078f5761078e610752565b5b6020830191508360018202830111156107ab576107aa610757565b5b9250929050565b600073ffffffffffffffffffffffffffffffffffffffff82169050919050565b60006107dd826107b2565b9050919050565b6107ed816107d2565b81146107f857600080fd5b50565b60008135905061080a816107e4565b92915050565b6000806000806060858703121561082a576108296106ea565b5b60006108388782880161070b565b945050602085013567ffffffffffffffff811115610859576108586106ef565b5b6108658782880161075c565b93509350506040610878878288016107fb565b91505092959194509250565b6000819050919050565b61089781610884565b81146108a257600080fd5b50565b6000813590506108b48161088e565b92915050565b60008060008060008060a087890312156108d7576108d66106ea565b5b60006108e589828a016107fb565b96505060206108f689828a0161070b565b955050604087013567ffffffffffffffff811115610917576109166106ef565b5b61092389828a0161075c565b9450945050606061093689828a0161070b565b925050608061094789828a016108a5565b9150509295509295509295565b61095d816107d2565b82525050565b60006020820190506109786000830184610954565b92915050565b600060208284031215610994576109936106ea565b5b60006109a2848285016108a5565b91505092915050565b60008115159050919050565b6109c0816109ab565b82525050565b60006020820190506109db60008301846109b7565b92915050565b600082825260208201905092915050565b7f4f6e6c79206f776e657200000000000000000000000000000000000000000000600082015250565b6000610a28600a836109e1565b9150610a33826109f2565b602082019050919050565b60006020820190508181036000830152610a5781610a1b565b9050919050565b7f496e73756666696369656e742062616c616e6365000000000000000000000000600082015250565b6000610a946014836109e1565b9150610a9f82610a5e565b602082019050919050565b60006020820190508181036000830152610ac381610a87565b9050919050565b600081905092915050565b50565b6000610ae5600083610aca565b9150610af082610ad5565b600082019050919050565b6000610b0682610ad8565b9150819050919050565b7f5769746864726177616c206661696c6564000000000000000000000000000000600082015250565b6000610b466011836109e1565b9150610b5182610b10565b602082019050919050565b60006020820190508181036000830152610b7581610b39565b9050919050565b7f416d6f756e74206d7573742062652067726561746572207468616e2030000000600082015250565b6000610bb2601d836109e1565b9150610bbd82610b7c565b602082019050919050565b60006020820190508181036000830152610be181610ba5565b9050919050565b7f43616e6e6f742062726964676520746f2073616d6520636861696e0000000000600082015250565b6000610c1e601b836109e1565b9150610c2982610be8565b602082019050919050565b60006020820190508181036000830152610c4d81610c11565b9050919050565b82818337600083830152505050565b6000601f19601f8301169050919050565b6000610c8083856109e1565b9350610c8d838584610c54565b610c9683610c63565b840190509392505050565b6000606082019050610cb660008301876106c0565b610cc360208301866106c0565b8181036040830152610cd6818486610c74565b905095945050505050565b7f42726964676520616c72656164792070726f6365737365640000000000000000600082015250565b6000610d176018836109e1565b9150610d2282610ce1565b602082019050919050565b60006020820190508181036000830152610d4681610d0a565b9050919050565b7f5472616e73666572206661696c65640000000000000000000000000000000000600082015250565b6000610d83600f836109e1565b9150610d8e82610d4d565b602082019050919050565b60006020820190508181036000830152610db281610d76565b9050919050565b6000606082019050610dce60008301876106c0565b8181036020830152610de1818587610c74565b9050610df060408301846106c0565b9594505050505056fea264697066735822122014397a5358916878880773de62288c551bdd14fda995d440d5b0ec3b019cee3164736f6c63430008140033",
  "linkReferences": {},
  "deployedLinkReferences": {}
}